:0A0E44000001020203030404050587
:10066300E4F52CF52BF52AF529C203C200C202C218
:1006730001120E667E0A7F008E0A8F0B75120A75B1
:10068300131275080A75091C75100A75114A751439
:100693000A751578EE54C07003020768752D00754E
:1006A3002E808E2F8F30C3749A9FFF740A9ECF249F
:1006B30002CF3400FEE48F288E27F526F525F52496
:1006C300F523F522F521AF28AE27AD26AC25AB24C3
:1006D300AA23A922A821C3120B525037E53025249F
:1006E300F582E52F3523F583E0FFE52E2524F582FA
:1006F300E52D3523F583EFF0E4FAF9F8E524240139
:10070300F524EA3523F523E93522F522E83521F5E9
:100713002180B3852D0A852E0B74002480FF740A73
:1007230034FFFEC3E5139FF513E5129EF512C3E5EF
:100733000D9FF50DE50C9EF50CC3E50F9FF50FE539
:100743000E9EF50EC3E5099FF509E5089EF508C35E
:10075300E5119FF511E5109EF510C3E5159FF515FD
:10076300E5149EF514D2E843D82090E668E04409E6
:10077300F090E65CE0443DF0D2AF90E680E054F7C1
:10078300F0538EF8C203120E7A3001051203B0C281
:10079300013003F21209FE50EDC203120D3F200097
:1007A3001690E682E030E704E020E1EF90E682E095
:0F07B30030E604E020E0E4120CE8120E7080C77C
:0107C2002214
:100DFF0090E60AE054F0600B90E509E030E402D38E
:050E0F0022C322D322E2
:1003B00090E6B9E0700302049B1470030205442424
:1003C000FE70030205DA24FB700302049514700327
:1003D00002048F147003020483147003020489243E
:1003E00005600302064F120E72400302065B90E6A0
:1003F000BBE024FE603B14605624FD601614604090
:1004000024067075E50A90E6B3F0E50B90E6B4F0CB
:1004100002065B120DFF500FE51290E6B3F0E513F4
:1004200090E6B4F002065B90E6A0E04401F002061C
:100430005BE50C90E6B3F0E50D90E6B4F002065BE8
:10044000E50E90E6B3F0E50F90E6B4F002065B909F
:10045000E6BAE0FF120D14AA06A9077B01EA494B90
:10046000600DEE90E6B3F0EF90E6B4F002065B901C
:10047000E6A0E04401F002065B90E6A0E04401F053
:1004800002065B120E2602065B120E5602065B1275
:100490000E4E02065B120E1402065B120E7440032F
:1004A00002065B90E6B8E0247F602B14603C2402D7
:1004B000600302053AA200E433FF25E0FFA202E454
:1004C000334F90E740F0E4A3F090E68AF090E68B9B
:1004D0007402F002065BE490E740F0A3F090E68A35
:1004E000F090E68B7402F002065B90E6BCE0547E6E
:1004F000FF7E00E0D3948040067C007D0180047C78
:10050000007D00EC4EFEED4F2444F582740E3EF566
:1005100083E493FF3395E0FEEF24A1FFEE34E68FF2
:1005200082F583E0540190E740F0E4A3F090E68A7E
:10053000F090E68B7402F002065B90E6A0E04401C6
:10054000F002065B120E76400302065B90E6B8E00E
:1005500024FE601D2402600302065B90E6BAE0B44C
:100560000105C20002065B90E6A0E04401F002062D
:100570005B90E6BAE0705990E6BCE0547EFF7E00E6
:10058000E0D3948040067C007D0180047C007D00E7
:10059000EC4EFEED4F2444F582740E3EF583E49359
:1005A000FF3395E0FEEF24A1FFEE34E68F82F58362
:1005B000E054FEF090E6BCE05480FF131313541F88
:1005C000FFE0540F2F90E683F0E04420F002065B3A
:1005D00090E6A0E04401F002065B120E78507C9099
:1005E000E6B8E024FE60202402705B90E6BAE0B436
:1005F0000104D200806590E6BAE06402605D90E696
:10060000A0E04401F0805490E6BCE0547EFF7E0000
:10061000E0D3948040067C007D0180047C007D0056
:10062000EC4EFEED4F2444F582740E3EF583E493C8
:10063000FF3395E0FEEF24A1FFEE34E68F82F583D1
:10064000E04401F0801590E6A0E04401F0800C1237
:100650000080500790E6A0E04401F090E6A0E0445E
:0206600080F028
:010662002275
:03003300020E6C4E
:040E6C0053D8EF3236
:060E6600D200120E5E2214
:010E7A002255
:0209FE00D32202
:020E7000D3228B
:020E7200D32289
:080E4E0090E6BAE0F51ED32284
:100E140090E740E51EF0E490E68AF090E68B04F05B
:020E2400D322D7
:080E560090E6BAE0F51CD3227E
:100E260090E740E51CF0E490E68AF090E68B04F04B
:020E3600D322C5
:020E7400D32287
:020E7600D32285
:020E7800D32283
:1000800090E678E05410FFC4540F4451F51D751FDD
:100090000190E6B9E0245EB40A0040030203AE908A
:1000A00000AD75F003A4C58325F0C5837302024B30
:1000B00002024B0203AE0203AE0200CB0203AE0209
:1000C00001110201370200EB0200FE90E600E0FFA2
:1000D000C4540F90E740F0E490E68AF090E68B0479
:1000E000F090E6A0E04480F00203AE90E67AE0549F
:1000F000FEF0E490E68AF090E68BF00203AE90E624
:100100007AE04401F0E490E68AF090E68BF0020396
:10011000AE90E7407407F0E490E68AF090E68B0436
:10012000F090E6A0E04480F07FE87E031209B8D2A8
:1001300004120CB90203AE751F01431D0190E6BA0B
:10014000E0753100F532A3E0FEE4EE423190E6BE08
:10015000E0753300F534A3E0FEE4EE423390E6B8F8
:10016000E064C060030201F1E5344533700302032B
:10017000AE90E6A0E020E1F9C3E5349440E5339485
:100180000050088533358534368006753500753660
:1001900040E4F537F538C3E5389536E53795355001
:1001A0001874402538F582E434E7F58374CDF00502
:1001B00038E5387002053780DDAD367AE779407E64
:1001C000E77F40AB07AF32AE31120A9CE490E68A7B
:1001D000F090E68BE536F02532F532E5353531F530
:1001E00031C3E5349536F534E5339535F533020101
:1001F0006890E6B8E0644060030203AEE53445333E
:1002000070030203AEE490E68AF090E68BF090E68D
:10021000A0E020E1F990E68BE0753500F536FD7A37
:10022000E779407EE77F40AB07AF32AE311208CBB3
:10023000E5362532F532E5353531F531C3E534950E
:1002400036F534E5339535F53380B1751F0190E609
:10025000BAE0753100F532A3E0FEE4EE423190E6FB
:10026000BEE0753300F534A3E0FEE4EE423390E6E1
:10027000B8E064C06003020316E53445337003023E
:1002800003AE90E6A0E020E1F9C3E5349440E53305
:1002900094005008853335853436800675350075F1
:1002A000364090E6B9E0B4A335E4F537F538C3E558
:1002B000389536E53795355038E5322538F582E5FD
:1002C000313537F583E0FF74402538F582E434E7B3
:1002D000F583EFF00538E5387002053780D0AD368C
:1002E0007AE779407EE77F40AB07AF32AE31120A42
:1002F0009CE490E68AF090E68BE536F02532F53204
:10030000E5353531F531C3E5349536F534E53395CA
:1003100035F53302027990E6B8E0644060030203E9
:10032000AEE534453370030203AEE490E68AF09004
:10033000E68BF090E6A0E020E1F990E68BE07535E1
:1003400000F53690E6B9E0B4A335E4F537F538C3E7
:10035000E5389536E5379535503874402538F582BF
:10036000E434E7F583E0FFE5322538F582E5313501
:1003700037F583EFF00538E5387002053780D0ADEA
:10038000367AE779407EE77F40AB07AF32AE311275
:1003900008CBE5362532F532E5353531F531C3E5A3
:0F03A000349536F534E5339535F533020321C333
:0103AF00222B
:100D6400C0E0C083C08290E6B5E04401F0D20153F4
:0F0D740091EF90E65D7401F0D082D083D0E03231
:100DD300C0E0C083C0825391EF90E65D7404F0D00D
:060DE30082D083D0E03253
:100DE900C0E0C083C0825391EF90E65D7402F0D0F9
:060DF90082D083D0E0323D
:100BE500C0E0C083C08290E680E030E70E85080C47
:100BF50085090D85100E85110F800C85100C85114A
:100C05000D85080E85090F5391EF90E65D7410F080
:070C1500D082D083D0E03251
:100DBB00C0E0C083C082D2035391EF90E65D74080C
:080DCB00F0D082D083D0E032A9
:100C1C00C0E0C083C08290E680E030E70E85080C0F
:100C2C0085090D85100E85110F800C85100C851112
:100C3C000D85080E85090F5391EF90E65D7420F039
:070C4C00D082D083D0E0321A
:010E7B003244
:010E7C003243
:010E7D003242
:010E7E003241
:010E7F003240
:010E8000323F
:010E8100323E
:010E8200323D
:010E8300323C
:010E8400323B
:010E8500323A
:010E86003239
:010E87003238
:010E88003237
:010E89003236
:010E8A003235
:010E8B003234
:010E8C003233
:010E8D003232
:010E8E003231
:010E8F003230
:010E9000322F
:010E9100322E
:010E9200322D
:010E9300322C
:010E9400322B
:010E9500322A
:010E96003229
:010E97003228
:010E98003227
:010E99003226
:010E9A003225
:010E9B003224
:010E9C003223
:010E9D003222
:010E9E003221
:060B6300AB07AA06AC0579
:100B6900E4FDE51F6010EA7E000DEE2400F582E445
:100B79003410F583EAF0EBAE050D74002EF582E42E
:100B89003410F583EBF0AF050D74002FF582E434D2
:100B990010F583ECF07A107B00AF1D120D9FAF1D8D
:030BA900120BAD7F
:010BAC002226
:0A08CB008E398F3A8D3B8A3C8B3D3D
:1008D500E4F53EE53EC3953B5020053AE53AAE3991
:1008E5007002053914FFE53D253EF582E4353CF5FA
:0A08F50083E0FD120B63053E80D97D
:0108FF0022D6
:0A0A9C008E398F3A8D3B8A3C8B3D6A
:100AA600E4FDF53EE51F6012E539FF7E000DEE24FC
:100AB60000F582E43410F583EFF0E53AAE050D74E7
:100AC600002EF582E43410F583E53AF07A107B00C7
:100AD600AF1D120D9FE4F53EE53EC3953B5012E572
:100AE6003D253EF582E4353CF583E51DF0053E8067
:0C0AF600E7AB3DAA3CAD3BAF1D120D83E9
:010B020022D0
:100A00001201000200000040B404041000000102C2
:100A100000010A06000200000040010009022E0049
:100A200001010080320904000004FF0000000705F6
:100A30000202000200070504020002000705860208
:100A40000002000705880200020009022E000101D1
:100A50000080320904000004FF00000007050202C4
:100A60004000000705040240000007058602400020
:100A70000007058802400000040309041003430036
:100A80007900700072006500730073000E0345006A
:0C0A90005A002D005500530042000000E9
:03004300020900AF
:030053000209009F
:10090000020D6400020DE900020DD300020DBB00D0
:10091000020BE500020C1C00020E7B00020E7C00A4
:10092000020E7D00020E7E00020E7F00020E80008D
:10093000020E8100020E8200020E8300020E84006D
:10094000020E8500020E7C00020E8600020E870059
:10095000020E8800020E8900020E8A00020E8B0031
:10096000020E8C00020E7C00020E7C00020E7C0047
:10097000020E8D00020E8E00020E8F00020E9000FD
:10098000020E9100020E9200020E9300020E9400DD
:10099000020E9500020E9600020E9700020E9800BD
:1009A000020E9900020E9A00020E9B00020E9C009D
:0809B000020E9D00020E9E00E4
:100CE80090E682E030E004E020E60B90E682E03017
:100CF800E119E030E71590E680E04401F07F147ECA
:0C0D0800001209B890E680E054FEF022D2
:100CB90030040990E680E0440AF0800790E680E07D
:100CC9004408F07FDC7E051209B890E65D74FFF0F8
:0F0CD90090E65FF05391EF90E680E054F7F02241
:1009B8008E398F3A90E600E054187012E53A240117
:1009C800FFE43539C313F539EF13F53A801590E68E
:1009D80000E05418FFBF100BE53A25E0F53AE53979
:1009E80033F539E53A153AAE39700215394E6005D6
:0609F800120D5380EE22F7
:080E5E00E4F51BD2E9D2AF223A
:100BAD00AD0790E678E020E6F9C2E990E678E044FA
:100BBD0080F0ED25E090E679F090E678E030E0F910
:100BCD0090E678E04440F090E678E020E6F990E693
:080BDD0078E030E1D6D2E922F4
:100C8700AC0790E678E020E6F9E51B702390E6785C
:100C9700E04480F0EC25E090E679F08D16AF03A9EB
:100CA700077517018A188919E4F51A751B01D322EC
:020CB700C32256
:100C5300AC0790E678E020E6F9E51B702590E6788E
:100C6300E04480F0EC25E0440190E679F08D16AF86
:100C730003A9077517018A188919E4F51A751B0367
:040C8300D322C32293
:03004B000207C3E6
:1007C300C0E0C083C082C085C084C086758600C077
:1007D300D075D000C000C001C002C003C006C0076E
:1007E30090E678E030E206751B060208AD90E678E5
:1007F300E020E10CE51B64026006751B070208ADEF
:10080300E51B24FE605F14603624FE700302089E1D
:1008130024FC70030208AA240860030208ADAB1786
:10082300AA18A919AF1A051A8F82758300120B0330
:1008330090E679F0E51A65167070751B05806B906C
:10084300E679E0AB17AA18A919AE1A8E8275830050
:10085300120B30751B02E5166401704E90E678E0CA
:100863004420F08045E51624FEB51A0790E678E0AB
:100873004420F0E51614B51A0A90E678E04440F0F7
:10088300751B0090E679E0AB17AA18A919AE1A8E6A
:1008930082758300120B30051A800F90E678E044CE
:1008A30040F0751B008003751B005391DFD007D008
:1008B30006D003D002D001D000D0D0D086D084D0CF
:0808C30085D082D083D0E03221
:020D1400A9072D
:100D1600AE14AF158F828E83A3E064037017AD0106
:100D260019ED7001228F828E83E07C002FFDEC3E50
:080D3600FEAF0580DFE4FEFFC3
:010D3E002292
:100D8300120C53E51B24FA600E146006240770F35B
:0C0D9300D322E4F51BD322E4F51BD3228D
:100D9F00120C87E51B24FA600E146006240770F30B
:0C0DAF00D322E4F51BD322E4F51BD32271
:100D3F0090E682E044C0F090E681F0438701000026
:040D4F00000000227E
:100D53007400F58690FDA57C05A3E582458370F9B3
:010D6300226D
:03000000020E38B5
:0C0E3800787FE4F6D8FD75813E02066369
:100B0300BB010CE58229F582E5833AF583E02250A7
:100B130006E92582F8E622BBFE06E92582F8E222F1
:0D0B2300E58229F582E5833AF583E493220B
:100B3000F8BB010DE58229F582E5833AF583E8F0FB
:100B4000225006E92582C8F622BBFE05E92582C8A7
:020B5000F2228F
:100B5200EB9FF5F0EA9E42F0E99D42F0E89C45F0F9
:010B62002270
:00000001FF
